{
  "fileName": "GuestBook.sol",
  "contractName": "GuestBook",
  "source": "pragma solidity ^0.5.7;\r\n\r\nimport \"@openzeppelin/upgrades/contracts/Initializable.sol\";\r\n\r\ncontract BasicAccessControl is Initializable {\r\n    address public owner;\r\n    address[] moderatorsArray;\r\n    address[] serversArray;\r\n    uint16 public totalModerators;\r\n    uint16 public totalServers;\r\n    mapping(address => bool) moderators;\r\n    mapping(address => bool) servers;\r\n    bool public isMaintaining;\r\n\r\n    function initialize(address sender) initializer public {\r\n        owner = sender;\r\n        if (moderators[sender] == false) {\r\n            moderators[sender] = true;\r\n            moderatorsArray.push(sender);\r\n            totalModerators += 1;\r\n        }\r\n\r\n        isMaintaining = true;\r\n        totalServers = 0;\r\n        totalModerators = 0;\r\n    }\r\n\r\n    modifier onlyOwner {\r\n        require(msg.sender == owner);\r\n        _;\r\n    }\r\n\r\n    modifier onlyServer {\r\n        require(servers[msg.sender] == true);\r\n        _;\r\n    }\r\n\r\n    modifier onlyModerators() {\r\n        require(moderators[msg.sender] == true);\r\n        _;\r\n    }\r\n\r\n    modifier isActive {\r\n        require(!isMaintaining);\r\n        _;\r\n    }\r\n\r\n    function findInArray(address _address) internal view returns (uint8) {\r\n        uint8 i = 0;\r\n        while (moderatorsArray[i] != _address) {\r\n            i++;\r\n        }\r\n        return i;\r\n    }\r\n\r\n    function ChangeOwner(address _newOwner) onlyOwner public {\r\n        if (_newOwner != address(0)) {\r\n            owner = _newOwner;\r\n        }\r\n    }\r\n\r\n    function AddModerator(address _newModerator) onlyOwner public {\r\n        if (moderators[_newModerator] == false) {\r\n            moderators[_newModerator] = true;\r\n            moderatorsArray.push(_newModerator);\r\n            totalModerators += 1;\r\n        }\r\n    }\r\n\r\n    function AddServer(address _newServer) onlyOwner public {\r\n        if (servers[_newServer] == false) {\r\n            servers[_newServer] = true;\r\n            serversArray.push(_newServer);\r\n            totalServers += 1;\r\n        }\r\n    }\r\n\r\n    function getModerators() public view returns (address[] memory) {\r\n        return moderatorsArray;\r\n    }\r\n\r\n    function getServers() public view returns (address[] memory) {\r\n        return serversArray;\r\n    }\r\n\r\n    function RemoveModerator(address _oldModerator) onlyOwner public {\r\n        if (moderators[_oldModerator] == true) {\r\n            moderators[_oldModerator] = false;\r\n            uint8 i = findInArray(_oldModerator);\r\n            while (i < moderatorsArray.length - 1) {\r\n                moderatorsArray[i] = moderatorsArray[i + 1];\r\n                i++;\r\n            }\r\n            moderatorsArray.length--;\r\n            totalModerators -= 1;\r\n        }\r\n    }\r\n\r\n    function RemoveServer(address _oldServer) onlyOwner public {\r\n        if (servers[_oldServer] == true) {\r\n            servers[_oldServer] = false;\r\n            uint8 i = findInArray(_oldServer);\r\n            while (i < serversArray.length - 1) {\r\n                serversArray[i] = serversArray[i + 1];\r\n                i++;\r\n            }\r\n            serversArray.length--;\r\n            totalServers -= 1;\r\n        }\r\n    }\r\n\r\n    function UpdateMaintaining(bool _isMaintaining) onlyOwner public {\r\n        isMaintaining = _isMaintaining;\r\n    }\r\n\r\n    function isModerator(address _address) public view returns (bool) {\r\n        return (moderators[_address]);\r\n    }\r\n\r\n    function isServer(address _address) public view returns (bool) {\r\n        return (servers[_address]);\r\n    }\r\n}\r\n\r\ncontract GuestBook is Initializable, BasicAccessControl {\r\n\r\n    uint public totalEntries;\r\n\r\n    struct Entry {\r\n        uint id;\r\n        address owner;\r\n        string message;\r\n    }\r\n\r\n    mapping(address => bool) hasEntry;\r\n    mapping(uint => Entry) entries;\r\n\r\n    function init(address _admin) initializer public {\r\n//        BasicAccessControl.initialize(_admin);\r\n    }\r\n\r\n    function addEntry() public {\r\n        require(hasEntry[msg.sender] == false);\r\n        Entry storage entry = entries[totalEntries];\r\n        entry.id = totalEntries;\r\n        entry.owner = msg.sender;\r\n        entry.message = '';\r\n        hasEntry[msg.sender] = true;\r\n        totalEntries++;\r\n    }\r\n\r\n    function modifyEntry(uint _id, string memory _message) public onlyModerators {\r\n        Entry storage entry = entries[_id];\r\n        entry.message = _message;\r\n    }\r\n\r\n    function getEntry(uint _id) public view returns(address owner, string memory message) {\r\n        Entry memory entry = entries[_id];\r\n        return (entry.owner, entry.message);\r\n    }\r\n\r\n}\r\n",
  "sourcePath": "contracts\\GuestBook.sol",
  "abi": [
    {
      "constant": true,
      "inputs": [],
      "name": "totalServers",
      "outputs": [
        {
          "name": "",
          "type": "uint16"
        }
      ],
      "payable": false,
      "stateMutability": "view",
      "type": "function"
    },
    {
      "constant": false,
      "inputs": [
        {
          "name": "_admin",
          "type": "address"
        }
      ],
      "name": "init",
      "outputs": [],
      "payable": false,
      "stateMutability": "nonpayable",
      "type": "function"
    },
    {
      "constant": true,
      "inputs": [],
      "name": "getModerators",
      "outputs": [
        {
          "name": "",
          "type": "address[]"
        }
      ],
      "payable": false,
      "stateMutability": "view",
      "type": "function"
    },
    {
      "constant": false,
      "inputs": [
        {
          "name": "_newServer",
          "type": "address"
        }
      ],
      "name": "AddServer",
      "outputs": [],
      "payable": false,
      "stateMutability": "nonpayable",
      "type": "function"
    },
    {
      "constant": false,
      "inputs": [
        {
          "name": "_isMaintaining",
          "type": "bool"
        }
      ],
      "name": "UpdateMaintaining",
      "outputs": [],
      "payable": false,
      "stateMutability": "nonpayable",
      "type": "function"
    },
    {
      "constant": true,
      "inputs": [],
      "name": "totalModerators",
      "outputs": [
        {
          "name": "",
          "type": "uint16"
        }
      ],
      "payable": false,
      "stateMutability": "view",
      "type": "function"
    },
    {
      "constant": false,
      "inputs": [
        {
          "name": "_oldServer",
          "type": "address"
        }
      ],
      "name": "RemoveServer",
      "outputs": [],
      "payable": false,
      "stateMutability": "nonpayable",
      "type": "function"
    },
    {
      "constant": false,
      "inputs": [
        {
          "name": "_newModerator",
          "type": "address"
        }
      ],
      "name": "AddModerator",
      "outputs": [],
      "payable": false,
      "stateMutability": "nonpayable",
      "type": "function"
    },
    {
      "constant": true,
      "inputs": [],
      "name": "getServers",
      "outputs": [
        {
          "name": "",
          "type": "address[]"
        }
      ],
      "payable": false,
      "stateMutability": "view",
      "type": "function"
    },
    {
      "constant": true,
      "inputs": [],
      "name": "totalEntries",
      "outputs": [
        {
          "name": "",
          "type": "uint256"
        }
      ],
      "payable": false,
      "stateMutability": "view",
      "type": "function"
    },
    {
      "constant": true,
      "inputs": [],
      "name": "owner",
      "outputs": [
        {
          "name": "",
          "type": "address"
        }
      ],
      "payable": false,
      "stateMutability": "view",
      "type": "function"
    },
    {
      "constant": false,
      "inputs": [],
      "name": "addEntry",
      "outputs": [],
      "payable": false,
      "stateMutability": "nonpayable",
      "type": "function"
    },
    {
      "constant": false,
      "inputs": [
        {
          "name": "_oldModerator",
          "type": "address"
        }
      ],
      "name": "RemoveModerator",
      "outputs": [],
      "payable": false,
      "stateMutability": "nonpayable",
      "type": "function"
    },
    {
      "constant": true,
      "inputs": [
        {
          "name": "_id",
          "type": "uint256"
        }
      ],
      "name": "getEntry",
      "outputs": [
        {
          "name": "owner",
          "type": "address"
        },
        {
          "name": "message",
          "type": "string"
        }
      ],
      "payable": false,
      "stateMutability": "view",
      "type": "function"
    },
    {
      "constant": false,
      "inputs": [
        {
          "name": "sender",
          "type": "address"
        }
      ],
      "name": "initialize",
      "outputs": [],
      "payable": false,
      "stateMutability": "nonpayable",
      "type": "function"
    },
    {
      "constant": false,
      "inputs": [
        {
          "name": "_id",
          "type": "uint256"
        },
        {
          "name": "_message",
          "type": "string"
        }
      ],
      "name": "modifyEntry",
      "outputs": [],
      "payable": false,
      "stateMutability": "nonpayable",
      "type": "function"
    },
    {
      "constant": true,
      "inputs": [],
      "name": "isMaintaining",
      "outputs": [
        {
          "name": "",
          "type": "bool"
        }
      ],
      "payable": false,
      "stateMutability": "view",
      "type": "function"
    },
    {
      "constant": false,
      "inputs": [
        {
          "name": "_newOwner",
          "type": "address"
        }
      ],
      "name": "ChangeOwner",
      "outputs": [],
      "payable": false,
      "stateMutability": "nonpayable",
      "type": "function"
    },
    {
      "constant": true,
      "inputs": [
        {
          "name": "_address",
          "type": "address"
        }
      ],
      "name": "isModerator",
      "outputs": [
        {
          "name": "",
          "type": "bool"
        }
      ],
      "payable": false,
      "stateMutability": "view",
      "type": "function"
    },
    {
      "constant": true,
      "inputs": [
        {
          "name": "_address",
          "type": "address"
        }
      ],
      "name": "isServer",
      "outputs": [
        {
          "name": "",
          "type": "bool"
        }
      ],
      "payable": false,
      "stateMutability": "view",
      "type": "function"
    }
  ],
  "bytecode": "0x608060405234801561001057600080fd5b50610fc3806100206000396000f3fe608060405234801561001057600080fd5b506004361061012c5760003560e01c80638da5cb5b116100ad578063ddb7aea211610071578063ddb7aea2146103b1578063ee4e44161461045e578063f28532921461047a578063fa6f3936146104a0578063fda08958146104c65761012c565b80638da5cb5b1461028b578063a3db3500146102af578063b85d6275146102b7578063bae78d7b146102dd578063c4d66de81461038b5761012c565b80634efb023e116100f45780634efb023e1461021557806354d118f01461021d5780636c81fd6d1461024357806375c1c7e7146102695780637fef036e146102715761012c565b806315625c5e1461013157806319ab453c146101505780632fc3f1941461017857806336da086a146101d057806348ef5aa8146101f6575b600080fd5b6101396104ec565b6040805161ffff9092168252519081900360200190f35b6101766004803603602081101561016657600080fd5b50356001600160a01b03166104fc565b005b6101806105a2565b60408051602080825283518183015283519192839290830191858101910280838360005b838110156101bc5781810151838201526020016101a4565b505050509050019250505060405180910390f35b610176600480360360208110156101e657600080fd5b50356001600160a01b0316610605565b6101766004803603602081101561020c57600080fd5b503515156106cd565b6101396106f7565b6101766004803603602081101561023357600080fd5b50356001600160a01b0316610701565b6101766004803603602081101561025957600080fd5b50356001600160a01b0316610825565b6101806108df565b61027961093f565b60408051918252519081900360200190f35b610293610945565b604080516001600160a01b039092168252519081900360200190f35b610176610954565b610176600480360360208110156102cd57600080fd5b50356001600160a01b03166109e2565b6102fa600480360360208110156102f357600080fd5b5035610afb565b60405180836001600160a01b03166001600160a01b0316815260200180602001828103825283818151815260200191508051906020019080838360005b8381101561034f578181015183820152602001610337565b50505050905090810190601f16801561037c5780820380516001836020036101000a031916815260200191505b50935050505060405180910390f35b610176600480360360208110156103a157600080fd5b50356001600160a01b0316610be4565b610176600480360360408110156103c757600080fd5b813591908101906040810160208201356401000000008111156103e957600080fd5b8201836020820111156103fb57600080fd5b8035906020019184600183028401116401000000008311171561041d57600080fd5b91908080601f016020809104026020016040519081016040528093929190818152602001838380828437600092019190915250929550610d5a945050505050565b610466610da7565b604080519115158252519081900360200190f35b6101766004803603602081101561049057600080fd5b50356001600160a01b0316610db0565b610466600480360360208110156104b657600080fd5b50356001600160a01b0316610df6565b610466600480360360208110156104dc57600080fd5b50356001600160a01b0316610e14565b60365462010000900461ffff1681565b600054610100900460ff16806105155750610515610e32565b80610523575060005460ff16155b61056157604051600160e51b62461bcd02815260040180806020018281038252602e815260200180610f6a602e913960400191505060405180910390fd5b600054610100900460ff1615801561058c576000805460ff1961ff0019909116610100171660011790555b801561059e576000805461ff00191690555b5050565b606060348054806020026020016040519081016040528092919081815260200182805480156105fa57602002820191906000526020600020905b81546001600160a01b031681526001909101906020018083116105dc575b505050505090505b90565b6033546001600160a01b0316331461061c57600080fd5b6001600160a01b03811660009081526038602052604090205460ff166106ca576001600160a01b0381166000818152603860205260408120805460ff1916600190811790915560358054808301825592527fcfa4bec1d3298408bb5afcfcd9c430549c5b31f8aa5c5848151c0a55f473c34d90910180546001600160a01b0319169092179091556036805461ffff6201000080830482169094011690920263ffff0000199092169190911790555b50565b6033546001600160a01b031633146106e457600080fd5b6039805460ff1916911515919091179055565b60365461ffff1681565b6033546001600160a01b0316331461071857600080fd5b6001600160a01b03811660009081526038602052604090205460ff161515600114156106ca576001600160a01b0381166000908152603860205260408120805460ff1916905561076782610e38565b90505b6035546000190160ff821610156107e85760358160010160ff168154811061078e57fe5b600091825260209091200154603580546001600160a01b039092169160ff84169081106107b757fe5b600091825260209091200180546001600160a01b0319166001600160a01b039290921691909117905560010161076a565b60358054906107fb906000198301610e7e565b50506036805460001961ffff62010000808404821692909201160263ffff00001990911617905550565b6033546001600160a01b0316331461083c57600080fd5b6001600160a01b03811660009081526037602052604090205460ff166106ca576001600160a01b031660008181526037602052604081208054600160ff19909116811790915560348054808301825592527f46bddb1178e94d7f2892ff5f366840eb658911794f2c3a44c450aa2c505186c190910180546001600160a01b0319169092179091556036805461ffff19811661ffff91821690930116919091179055565b606060358054806020026020016040519081016040528092919081815260200182805480156105fa576020028201919060005260206000209081546001600160a01b031681526001909101906020018083116105dc575050505050905090565b603a5481565b6033546001600160a01b031681565b336000908152603b602052604090205460ff161561097157600080fd5b603a546000818152603c602090815260408083209384556001840180546001600160a01b03191633179055805191820190819052908290526109b891600284019190610ea7565b5050336000908152603b60205260409020805460ff19166001908117909155603a80549091019055565b6033546001600160a01b031633146109f957600080fd5b6001600160a01b03811660009081526037602052604090205460ff161515600114156106ca576001600160a01b0381166000908152603760205260408120805460ff19169055610a4882610e38565b90505b6034546000190160ff82161015610ac95760348160010160ff1681548110610a6f57fe5b600091825260209091200154603480546001600160a01b039092169160ff8416908110610a9857fe5b600091825260209091200180546001600160a01b0319166001600160a01b0392909216919091179055600101610a4b565b6034805490610adc906000198301610e7e565b50506036805461ffff19811661ffff9182166000190190911617905550565b60006060610b07610f25565b6000848152603c60209081526040918290208251606081018452815481526001808301546001600160a01b0316828501526002808401805487516101009482161594909402600019011691909104601f81018690048602830186018752808352929593949386019391929091830182828015610bc45780601f10610b9957610100808354040283529160200191610bc4565b820191906000526020600020905b815481529060010190602001808311610ba757829003601f168201915b505050919092525050506020810151604090910151909350915050915091565b600054610100900460ff1680610bfd5750610bfd610e32565b80610c0b575060005460ff16155b610c4957604051600160e51b62461bcd02815260040180806020018281038252602e815260200180610f6a602e913960400191505060405180910390fd5b600054610100900460ff16158015610c74576000805460ff1961ff0019909116610100171660011790555b603380546001600160a01b0319166001600160a01b03841690811790915560009081526037602052604090205460ff16610d2b576001600160a01b03821660008181526037602052604081208054600160ff19909116811790915560348054808301825592527f46bddb1178e94d7f2892ff5f366840eb658911794f2c3a44c450aa2c505186c190910180546001600160a01b0319169092179091556036805461ffff19811661ffff918216909301169190911790555b6039805460ff191660011790556036805463ffffffff19169055801561059e576000805461ff00191690555050565b3360009081526037602052604090205460ff161515600114610d7b57600080fd5b6000828152603c6020908152604090912082519091610da1916002840191850190610ea7565b50505050565b60395460ff1681565b6033546001600160a01b03163314610dc757600080fd5b6001600160a01b038116156106ca57603380546001600160a01b0383166001600160a01b031990911617905550565b6001600160a01b031660009081526037602052604090205460ff1690565b6001600160a01b031660009081526038602052604090205460ff1690565b303b1590565b6000805b826001600160a01b031660348260ff1681548110610e5657fe5b6000918252602090912001546001600160a01b031614610e7857600101610e3c565b92915050565b815481835581811115610ea257600083815260209020610ea2918101908301610f4f565b505050565b828054600181600116156101000203166002900490600052602060002090601f016020900481019282601f10610ee857805160ff1916838001178555610f15565b82800160010185558215610f15579182015b82811115610f15578251825591602001919060010190610efa565b50610f21929150610f4f565b5090565b60405180606001604052806000815260200160006001600160a01b03168152602001606081525090565b61060291905b80821115610f215760008155600101610f5556fe436f6e747261637420696e7374616e63652068617320616c7265616479206265656e20696e697469616c697a6564a165627a7a723058204e9357256717a88561ba422f916a6bb7258d8cad9c01d594dd28a2ec3e5625a40029",
  "compiler": {
    "name": "solc",
    "version": "0.5.7+commit.6da8b019.Emscripten.clang",
    "optimizer": {
      "enabled": true
    },
    "evmVersion": "constantinople"
  }
}